:100000000C9462000C948A000C948A000C948A0070
:100010000C948A000C948A000C948A000C948A0038
:100020000C948A000C948A000C948A000C948A0028
:100030000C948A000C948A000C948A000C948A0018
:100040000C9466080C948A000C9434080C940E08E6
:100050000C948A000C948A000C948A000C948A00F8
:100060000C94B0080C948A000000000024002700C3
:100070002A0000000000250028002B0000000000DE
:1000800023002600290004040404040404040202DA
:100090000202020203030303030301020408102007
:1000A0004080010204081020010204081020000012
:1000B0000008000201000003040700000000000027
:1000C0000000CF0911241FBECFEFD8E0DEBFCDBFA7
:1000D00024E0ACEDB2E001C01D92AC37B207E1F70D
:1000E00012E0A0E0B1E0E2E6FEE102C005900D9270
:1000F000AC3DB107D9F710E0C2E6D0E004C02197CB
:10010000FE010E94040EC136D107C9F70E94250ADC
:100110000C942F0F0C940000982F2091B60381E0CF
:10012000213208F043C0809192038111FCCF80916D
:10013000B50332E030939203909391039FEF909335
:10014000900310928F0320938E03A5E9B3E0EEE6AF
:10015000F3E090E0291331C010926D0390916D038C
:10016000880F892B80936D0380916C03813049F552
:1001700010926C0380916D038093BB008091BC0052
:1001800083FDF8CF85EC8093BC0080919203823090
:10019000E1F3809190038F3FB1F080919003803222
:1001A000A1F080919003803391F084E01092940349
:1001B0001092B6031092930308953D9131939F5F7F
:1001C000C9CF85EEE0CF80E0F1CF82E0EFCF83E0D2
:1001D000EDCF08950895AF92BF92CF92DF92EF9244
:1001E000FF920F931F93CF93DF936C017B018B01E1
:1001F000040F151FEB015E01AE18BF08C017D10731
:1002000059F06991D601ED91FC910190F081E02DBA
:10021000C6010995892B79F7C501DF91CF911F910F
:100220000F91FF90EF90DF90CF90BF90AF90089527
:10023000FC01538D448D252F30E0842F90E0821BEC
:10024000930B541710F0CF96089501970895FC0171
:10025000918D828D981761F0A28DAE0FBF2FB11DC9
:100260005D968C91928D9F5F9F73928F90E0089521
:100270008FEF9FEF0895FC01918D828D981731F0DB
:10028000828DE80FF11D858D90E008958FEF9FEF2F
:100290000895FC01918D228D892F90E0805C9F4F05
:1002A000821B91098F739927089587EB93E00E9431
:1002B000490121E0892B09F420E0822F089580E094
:1002C00090E0892B29F00E94550181110C940000C7
:1002D0000895FC01A48DA80FB92FB11DA35ABF4FDB
:1002E0002C91848D90E001968F739927848FA68935
:1002F000B7892C93A089B1898C91837080648C9389
:10030000938D848D981306C00288F389E02D808137
:100310008F7D80830895EF92FF920F931F93CF9369
:10032000DF93EC0181E0888F9B8D8C8D98131AC030
:10033000E889F989808185FF15C09FB7F894EE8917
:10034000FF896083E889F989808183708064808374
:100350009FBF81E090E0DF91CF911F910F91FF90BF
:10036000EF900895F62E0B8D10E00F5F1F4F0F7367
:100370001127E02E8C8D8E110CC00FB607FCFACF22
:10038000E889F989808185FFF5CFCE010E94690156
:10039000F1CFEB8DEC0FFD2FF11DE35AFF4FF082F3
:1003A0009FB7F8940B8FEA89FB8980818062CFCF59
:1003B000CF93DF93EC01888D8823B9F0AA89BB899C
:1003C000E889F9898C9185FD03C0808186FD0DC087
:1003D0000FB607FCF7CF8C9185FFF2CF808185FFA8
:1003E000EDCFCE010E946901E9CFDF91CF91089551
:1003F000833081F028F4813099F08230A9F008959B
:100400008730A9F08830C9F08430B1F48091800041
:100410008F7D03C0809180008F7780938000089546
:1004200084B58F7784BD089584B58F7DFBCF80918F
:10043000B0008F778093B00008958091B0008F7DD9
:10044000F9CFCF93DF93282F30E0F901E255FF4F2A
:100450008491F901E656FF4FD491F901EA57FF4F15
:10046000C491CC23A1F081110E94F801EC2FF0E09F
:10047000EE0FFF1FE458FF4FA591B491EC91ED23CF
:1004800081E090E009F480E0DF91CF91089580E071
:1004900090E0FACF1F93CF93DF93282F30E0F9013C
:1004A000E255FF4F8491F901E656FF4FD491F901CF
:1004B000EA57FF4FC491CC23A9F0162F81110E9457
:1004C000F801EC2FF0E0EE0FFF1FEE58FF4FA59163
:1004D000B4918FB7F894EC91111108C0D095DE2338
:1004E000DC938FBFDF91CF911F910895DE2BF8CF62
:1004F000CF93DF9390E0FC01E656FF4F24918A579B
:100500009F4FFC0184918823D1F090E0880F991FC0
:10051000FC01E859FF4FA591B491FC01EE58FF4F43
:10052000C591D49161110EC09FB7F8948C91E22FC0
:10053000E0958E238C932881E223E8839FBFDF918F
:10054000CF9108958FB7F894EC91E22BEC938FBF85
:10055000F6CF3FB7F8948091260390912703A0919E
:100560002803B091290326B5A89B05C02F3F19F099
:100570000196A11DB11D3FBFBA2FA92F982F882723
:10058000BC01CD01620F711D811D911D42E0660FFE
:10059000771F881F991F4A95D1F708958F929F92D0
:1005A000AF92BF92CF92DF92EF92FF924B015C012C
:1005B0000E94A9026B017C010E94A9026C197D09AD
:1005C0008E099F09683E734081059105A8F321E0DB
:1005D000821A9108A108B10888EEC80E83E0D81EDF
:1005E000E11CF11C81149104A104B10429F7FF90CE
:1005F000EF90DF90CF90BF90AF909F908F90089535
:100600001F93CF93DF93EA01122FDC0111968D9196
:100610009C91DC01ED91FC910280F381E02D099524
:10062000C817D90729F4812F0E948C0091E081110D
:1006300090E0892FDF91CF911F91089585ED8093F0
:10064000BC008091BC0084FDFCCF10929203089501
:1006500020910203260F3327331F21323105ECF49A
:1006600020919203FC0190E080E0243069F082E068
:100670000895A09102032191AC014E515D4FA40F4A
:10068000B52FB11D2C930196861798F38091020324
:10069000680F6093020380E0089581E0089510924E
:1006A000920381E08093910310926C0361E082E1F8
:1006B0000E944A0261E083E10E944A02E9EBF0E015
:1006C00080818E7F808380818D7F808388E480938A
:1006D000B80085E48093BC000895CF93DF93EC01CC
:1006E0008B818823A1F0888191E09093930380937C
:1006F000B503109294031092B60381E00E948C001F
:1007000091E0811190E0892FDF91CF9108951092AF
:10071000490310924803109294031092B6030E946A
:100720004F0389EE90E090932D0380932C038AEE83
:1007300090E090932B0380932A0381E08B83CE017A
:100740000E946D03982F8111CECFDDCF0895E091E7
:10075000490380914803E81730F4F0E0E65BFC4F72
:10076000808190E008958FEF9FEF08959091490365
:10077000809148032FEF3FEF981748F4E92FF0E0FE
:10078000E65BFC4F208130E09F5F90934903C901F5
:1007900008958091480390914903891B990B08950E
:1007A000CF92DF92EF92FF920F931F93CF93DF933D
:1007B0007C01CB018A0120919303222389F0EB0174
:1007C0006B01C40ED51ECC15DD0569F06991D7010A
:1007D000ED91FC910190F081E02DC7010995F3CFD7
:1007E000642F0E942803C801DF91CF911F910F91C0
:1007F000FF90EF90DF90CF900895CF93DF931F92FB
:10080000CDB7DEB76983209193032223F9F02091BD
:10081000B603203258F021E030E0FC01338322831C
:1008200090E080E00F90DF91CF9108958091940344
:10083000E82FF0E0EB56FC4F998190838F5F809317
:1008400094038093B60381E090E0ECCF61E0CE01A9
:1008500001960E942803F7CF089590E080E0089564
:100860002F923F924F925F926F927F928F929F92C0
:10087000AF92BF92CF92DF92EF92FF920F931F93AE
:10088000CF93DF9300D000D000D01F92CDB7DEB75A
:100890008C011982A0906A03B0906B03D501149665
:1008A0008D919C911597892B09F4A5C08C9191E0AD
:1008B000909393038093B503109294031092B60320
:1008C00020E041E050E0BE016F5F7F4FC5010E9414
:1008D0000003882309F48FC0D12CC12CB7E06B2E04
:1008E000712C3324339485EC282E8091920381114E
:1008F000FCCFF501848195817301EC18FD088E15FC
:100900009F0508F47C01D5019C918E2D813208F061
:1009100080E23092920341E093012E193F09C21602
:10092000D30608F440E040939103BFEFB0939003E7
:1009300010928F032FEF280F20938E0330926D03B8
:1009400020916D03990F922B90936D0390916C03FE
:10095000913009F041C010926C0390916D03909317
:10096000BB009091BC0093FDF8CF2092BC00909109
:1009700092039130E1F390918F03981710F48091D6
:100980008F03AEE6B3E0EAE4F3E090E0981328C00A
:1009900010924903909348039E151F0461F5882423
:1009A0008394912C8C0E9D1E8C0C9D1C2401C401E3
:1009B000841995098E159F05B8F4D50111968D916E
:1009C0009C91DC01ED91FC910284F385E02D099569
:1009D000F40181934F01EBCFE5EEE093BC00C7CF6C
:1009E0002D9121939F5FD2CFCE0CDF1CF7E0CF1665
:1009F000D10408F47ACFE981EF77FA81FB804D8149
:100A00005E818F81282F30E094E0359527959A9567
:100A1000E1F7922F990F990F291B220F280FD80168
:100A20002C93852F90E024E0959587952A95E1F702
:100A3000982F990F990F891B880F850F11968C930A
:100A40001197642F70E034E0759567953A95E1F75A
:100A5000862F880F880F681B660F640F12966C93A1
:100A600012974F2D50E064E0559547956A95E1F750
:100A7000842F880F880F481B440F4F0D13964C93FB
:100A800013972F2F30E074E0359527957A95E1F78D
:100A9000822F880F880F281B220F2F0F14962C935C
:100AA00014978E2F90E0F4E095958795FA95E1F7ED
:100AB000982F990F990F891B880F8E0F15968C937D
:100AC000C80127960FB6F894DEBF0FBECDBFDF91E9
:100AD000CF911F910F91FF90EF90DF90CF90BF903B
:100AE000AF909F908F907F906F905F904F903F90CE
:100AF0002F900895CF93DF93EC0160E08E810E94E8
:100B00004A0261E08E810E944A0260E08E810E946A
:100B10004A028BE891E00197F1F7DF91CF910895B8
:100B2000CF92DF92EF92FF920F931F93CF93DF93B9
:100B30006C017C0187E0E80EF11CD0E0C0E0062FDC
:100B400010E0B8010C2E02C0759567950A94E2F783
:100B50006170F70181917F010E944A022196C430A1
:100B6000D10579F7C601DF91CF911F910F91FF90C9
:100B7000EF90DF90CF900C947A05CF92DF92EF92B6
:100B8000FF920F931F93CF93DF93EC01F62E642F08
:100B90008C810E944A028D818F3F19F060E00E9493
:100BA0004A020F2D10E08F8584FF25C06E0187E07B
:100BB000C80ED11CF12CE12CB8010E2C02C0759589
:100BC00067950A94E2F76170F60181916F010E94C6
:100BD0004A02FFEFEF1AFF0A88E0E816F10461F716
:100BE000CE01DF91CF911F910F91FF90EF90DF9099
:100BF000CF900C947A05B80184E0759567958A9535
:100C0000E1F7CE010E9490056F2DCE01DF91CF91CB
:100C10001F910F91FF90EF90DF90CF900C94900573
:100C200040E0682F80E694E00C94BD0581E00E94CE
:100C300010068BE39FE10197F1F70895CF93DF93BF
:100C4000823029F490916F04986090936F048093A0
:100C500073041092740480E48093750480E180939F
:100C6000760480E58093770461E0809164040E94BB
:100C70007802809165048F3F19F061E00E9478024C
:100C800061E0809166040E947802C0E6D4E09E0193
:100C90002056344080916F0484FD0BC084E090E0C6
:100CA00021962817390744F461E08E810E9478026A
:100CB000EECF88E090E0F4CF8BE39DE00197F1F771
:100CC00060E0809164040E944A0260E080916604C2
:100CD0000E944A02809165048F3F19F060E00E94F3
:100CE0004A0280916F0484FD34C063E080E694E0A2
:100CF0000E949005CBE4D6E4CE010197F1F763E0C2
:100D000080E694E00E9490052197F1F763E080E689
:100D100094E00E94900583E592E00197F1F762E08C
:100D200080E694E00E94900580916F0480620E94AA
:100D3000100684E0809370048CE00E9410060E94EC
:100D4000160682E08093710486E0DF91CF910C94C7
:100D5000100680620E9410068BE496E40197F1F77A
:100D600080916F0480620E94100683E592E00197F3
:100D7000F1F780916F0480620E941006D5CF9091A8
:100D80007304691710F06FEF690FE62FF0E0E05A77
:100D9000FB4F9489890F80680C94100641E00E94F3
:100DA000BD0581E090E00895FB0101900020E9F786
:100DB0003197AF01461B570BDC01ED91FC9102808E
:100DC000F381E02D09948F929F92AF92BF92EF92A0
:100DD000FF920F931F93CF93DF93CDB7DEB7A19709
:100DE0000FB6F894DEBF0FBECDBF7C01FA01CB0178
:100DF00019A2223008F42AE08E010F5D1F4F822EC7
:100E0000912CB12CA12CBF01A50194010E94E20DEF
:100E1000F901CA016A300CF5605DD8016E938D014D
:100E2000232B242B252B79F790E080E0109721F0DD
:100E3000BD01C7010E94D406A1960FB6F894DEBF8B
:100E40000FBECDBFDF91CF911F910F91FF90EF901B
:100E5000BF90AF909F908F900895695CDECFCF9345
:100E6000DF93482F50E070E060E02AE087EB93E0EA
:100E70000E94E306EC0167E371E087EB93E00E94D8
:100E8000D4068C0F9D1FDF91CF910895AC01990F6F
:100E9000660B770B2AE080E694E00C94E306CF9390
:100EA000DF93BC0187EB93E00E94D406EC0167E37B
:100EB00071E087EB93E00E94D4068C0F9D1FDF91B9
:100EC000CF9108950F931F93809132039091330334
:100ED000009709F048C08AE391E00E944F072FB7BE
:100EE000F89480912E0390912F03A0913003B0913C
:100EF00031032FBF4091DE025091DF026091E0028A
:100F00007091E1028C019D01041B150B260B370B20
:100F1000B901A801443F51406105710580F18093FA
:100F2000DE029093DF02A093E002B093E10288E535
:100F300091E00E944F078091DC029091DD02892BA5
:100F400069F481E090E09093DD028093DC0260918F
:100F5000DC028DE01F910F910C944A021092DD0289
:100F60001092DC02F4CF019751F486E691E00E94E2
:100F70004F071092DD021092DC0260E0EACF1F9171
:100F80000F910895CF93DF9300D000D000D0CDB75C
:100F9000DEB7CE0101960E9430048C81843168F066
:100FA0008E8181110E9462078E818A3030F081E04B
:100FB00090E0909333038093320326960FB6F89413
:100FC000DEBF0FBECDBFDF91CF910895CF93DF93EA
:100FD00000D000D000D0CDB7DEB7CE0101960E9480
:100FE00030048C81883068F08E8181110E94620704
:100FF0008E818A3030F081E090E0909333038093CB
:10100000320326960FB6F894DEBF0FBECDBFDF9138
:10101000CF9108950C94D4060C94CC0D1F920F928E
:101020000FB60F9211242F933F934F935F936F93BB
:101030007F938F939F93AF93BF93EF93FF9387EB30
:1010400093E00E946901FF91EF91BF91AF919F9151
:101050008F917F916F915F914F913F912F910F9061
:101060000FBE0F901F9018951F920F920FB60F9200
:1010700011242F938F939F93EF93FF93E091C703D6
:10108000F091C8038081E091CD03F091CE0382FD01
:101090001BC090818091D0038F5F8F732091D1030B
:1010A000821741F0E091D003F0E0E954FC4F958FB6
:1010B0008093D003FF91EF919F918F912F910F908B
:1010C0000FBE0F901F9018958081F4CF1F920F9242
:1010D0000FB60F9211242F933F938F939F93AF934B
:1010E000BF9380912E0390912F03A0913003B09174
:1010F00031033091250323E0230F2D3758F5019656
:10110000A11DB11D2093250380932E0390932F03DF
:10111000A0933003B093310380912603909127036D
:10112000A0912803B09129030196A11DB11D8093C0
:10113000260390932703A0932803B0932903BF911C
:10114000AF919F918F913F912F910F900FBE0F9074
:101150001F90189526E8230F0296A11DB11DD2CF2E
:101160001F920F920FB60F9211242F933F934F931C
:101170005F936F937F938F939F93AF93BF93EF93FF
:10118000FF938091B900887F803609F44AC0F0F55A
:10119000883209F4A7C018F5803109F49BC0B8F46F
:1011A000882309F4F9C0883009F494C0FF91EF91C5
:1011B000BF91AF919F918F917F916F915F914F916F
:1011C0003F912F910F900FBE0F901F90189588316F
:1011D00009F488C0803251F78093900314C08034A2
:1011E00009F49DC040F48033B9F38833F9F6809355
:1011F000900385ECB0C0803509F485C0883509F4CA
:1012000096C0883499F60E941E03D0CF883909F41D
:101210008CC038F5883729F050F4883611F08037C3
:1012200029F683E0809392031092240357C08838F4
:1012300009F47BC0803919F0803809F0B7CF80916C
:101240002403803208F071C0E091240381E08E0F06
:10125000809324038091BB00F0E0EC5FFC4F80831F
:101260003DC0803B39F0E0F4803A09F479C0883A17
:1012700009F09CCF84E080939203109203031092B4
:101280000203E0912C03F0912D0309958091020354
:1012900081110FC081E0809302031092E20209C025
:1012A000803C09F4A6CF883C09F4A3CF883B09F021
:1012B0007DCFE091030381E08E0F80930303F0E084
:1012C000EE51FD4F80818093BB009091030380918C
:1012D000020329C080916D038093BB0085EC80934D
:1012E000BC0064CF90918F0380918E03981758F5BE
:1012F000E0918F0381E08E0F80938F03F0E0E2593D
:10130000FC4F8081E9CFE0918F0381E08E0F8093C5
:101310008F038091BB00F0E0E259FC4F80839091F5
:101320008F0380918E039817C8F285E8D8CFE0919B
:101330008F0381E08E0F80938F038091BB00F0E0DC
:10134000E259FC4F80838091910381115CCF81E051
:1013500080936C0384EA8093BC001092920326CFA2
:1013600085EC8093BC00109292038091240380321C
:1013700030F4E0912403F0E0EC5FFC4F10826091C8
:10138000240370E0E0912A03F0912B0384E093E0C2
:101390000995109224030ACF1092900334CFE7EB03
:1013A000F3E01382128288EE93E0A0E0B0E0848341
:1013B0009583A683B7832BE031E03183208325EC2E
:1013C00030E03587248724EC30E03787268720EC0F
:1013D00030E0318B208B21EC30E0338B228B22EC00
:1013E00030E0358B248B26EC30E0378B268B118E4A
:1013F000128E138E148EE4E5F4E01382128284833D
:101400009583A683B7838DE191E091838083E0E6A5
:10141000F4E0138212828FE291E0918380838CE06A
:1014200084838FEF85838BE0868385E0878384E0E8
:10143000808783E0818782E0828713861486158601
:101440001686178681E00C941E06CF93DF93CDB7E6
:10145000DEB728970FB6F894DEBF0FBECDBF7894E5
:1014600084B5826084BD84B5816084BD85B58260A9
:1014700085BD85B5816085BD80916E00816080935A
:101480006E001092810080918100826080938100C3
:1014900080918100816080938100809180008160D3
:1014A000809380008091B10084608093B10080912E
:1014B000B00081608093B00080917A008460809356
:1014C0007A0080917A00826080937A0080917A001D
:1014D000816080937A0080917A00806880937A009E
:1014E0001092C100E091C703F091C80382E08083AD
:1014F000E091C303F091C4031082E091C503F09121
:10150000C6038FEC80831092CF03E091CB03F09160
:10151000CC0386E08083E091C903F091CA03808107
:1015200080618083E091C903F091CA038081886063
:101530008083E091C903F091CA0380818068808331
:10154000E091C903F091CA0380818F7D80838091EF
:101550006A0390916B03009711F00E94A60E86E03B
:1015600090E00E940A0E8C0188E6F801808384E5F1
:1015700094E092838183138280E290E09583848358
:1015800010936B0300936A0310924903109248036F
:10159000109294031092B6030E944F0389EE90E0DC
:1015A00090932D0380932C038AEE90E090932B036D
:1015B00080932A03FF24F394F801F382C8010E9468
:1015C0006D03811105C08AE791E00E944F07FFCFAC
:1015D0008E010F5F1F4F86E0F80111928A95E9F79F
:1015E00080E58A8389E58B8387E08C8382E08E8324
:1015F00082E18F8381E2888780916A0390916B03F7
:10160000FC01248135812830310578F02081F09269
:1016100093032093B503109294031092B60321E034
:1016200048E050E0B8010E94000382E00E941E06DC
:101630000E94160660E080E00E94BF066CE871E040
:1016400080E694E00E940A0861E080E00E94BF0604
:1016500067E971E080E694E00E940A0868EE73E0B2
:1016600080E090E00E94CE0260E089E00E94780273
:1016700060E088E00E94780260E087E00E947802E3
:1016800060E08EE00E94780261E08DE00E947802C6
:1016900068EC70E080E090E00E94CE0290E080E094
:1016A0000E940C080E942F0780E0682E80E0782EB0
:1016B00092E0C92ED12C23E0A22EB12C8824839451
:1016C000912CE0904003F0904103F1E0EF16F1041B
:1016D00009F03FC0109241031092400310923F0363
:1016E00010923E0310923D0310923C0361E090E0A3
:1016F00080E00E94D40D63EA71E087EB93E00E94E2
:101700000A0890E080E00E940C080E942F07F092E7
:101710004703E09246030E94160660E080E00E94C4
:10172000BF0664EB71E080E694E00E940A0861E085
:1017300080E00E94BF0662EC71E080E694E00E94C7
:101740000A0860EB74E080E090E00E94CE020E9404
:10175000160680913E0390913F03019709F03FC028
:1017600010923F0310923E031092410310924003E7
:1017700010923D0310923C0362E090E080E00E94F2
:10178000D40D61ED71E087EB93E00E940A0890E0D0
:1017900080E00E940C080E942F07D0924703C0925D
:1017A00046030E94160660E080E00E94BF0664EBDC
:1017B00071E080E694E00E940A0861E080E00E9407
:1017C000BF0662EE71E080E694E00E940A0860EBDA
:1017D00074E080E090E00E94CE020E9416068091A4
:1017E0003C0390913D03019709F03FC010923D03E7
:1017F00010923C03109241031092400310923F0359
:1018000010923E0363E090E080E00E94D40D62EF0E
:1018100071E087EB93E00E940A0890E080E00E946C
:101820000C080E942F07B0924703A09246030E9423
:10183000160660E080E00E94BF0664EB71E080E67F
:1018400094E00E940A0861E080E00E94BF0663E025
:1018500072E080E694E00E940A0860EB74E080E0A9
:1018600090E00E94CE020E9416068091460390915D
:1018700047038130910509F0C1C00E94E6072FB7E8
:10188000F89480912E0390912F03A0913003B09192
:1018900031032FBF8093420390934303A0934403EB
:1018A000B093450389E00E94210290934103809305
:1018B000400388E00E94210290933F0380933E03FF
:1018C00087E00E94210290933D0380933C038EE0C9
:1018D0000E94210290933B0380933A03813091054B
:1018E00011F590933303809332030E94160660E053
:1018F00080E00E94BF0664E172E080E694E00E940E
:101900000A0861E080E00E94BF0664E272E080E6BF
:1019100094E00E940A0860EB74E080E090E00E948E
:10192000CE020E9416068091420390914303A0913B
:101930004403B091450340913603509137036091C1
:101940003803709139031C012D01241A350A460A07
:10195000570AB201A101413D574061057105C0F030
:101960008093360390933703A0933803B0933903E1
:1019700080913403909135030196833091050CF0EA
:101980005CC0909335038093340381E08093000121
:1019900080910001882331F110920001809134037D
:1019A000909135038130910509F44CC08230910546
:1019B00009F493C0892BB1F40E94160660E080E020
:1019C0000E94BF0664E372E080E694E00E940A0889
:1019D00061E080E00E94BF0664E472E080E694E08B
:1019E0000E940A086114710409F46BCE0E9455012B
:1019F000882309F466CE0E94000063CE82309105F0
:101A000029F40E94E6070E94C20739CF039709F024
:101A100036CF0E94E607C8010E9430048C818E30C8
:101A200090F38E8181110E9462078E818A3058F373
:101A30009092330380923203E6CF109235031092D6
:101A40003403A3CF0E94160680914603909147036A
:101A5000009789F460E080E00E94BF0665E572E0CF
:101A600080E694E00E940A0861E080E00E94BF06E0
:101A700063E672E0B3CF81309105D9F460E080E095
:101A80000E94BF0664E772E080E694E00E940A08C4
:101A900060E080E00E94BF0667E872E080E694E0C4
:101AA0000E940A0861E080E00E94BF0669E972E0D6
:101AB00095CF8230910539F460E080E00E94BF0646
:101AC00066EA72E0E1CF039709F08CCF60E080E036
:101AD0000E94BF0669EB72E0D7CFC8010E943004B4
:101AE0000E94160660E080E00E94BF066CEC72E087
:101AF00080E694E00E940A0860E086E00E94BF064B
:101B00008C8190E00E94460760ED72E080E694E0F0
:101B10000E940A088D8190E00E94460760ED72E005
:101B200080E694E00E940A088E8190E00E944607B9
:101B300061E080E00E94BF0662ED72E080E694E022
:101B40000E940A084B8150E070E060E02AE080E6E5
:101B500094E00E94E30669ED72E080E694E00E9462
:101B60000A084A8150E070E060E02AE080E694E0F4
:101B70000E94E30669ED72E080E694E00E940A08A4
:101B8000498150E04053584F70E060E02AE080E621
:101B900094E00E94E30626CFF999FECF92BD81BD65
:101BA000F89A992780B50895262FF999FECF1FBA84
:101BB00092BD81BD20BD0FB6F894FA9AF99A0FBE76
:101BC00001960895A1E21A2EAA1BBB1BFD010DC0B0
:101BD000AA1FBB1FEE1FFF1FA217B307E407F507DD
:101BE00020F0A21BB30BE40BF50B661F771F881FB9
:101BF000991F1A9469F760957095809590959B014F
:101C0000AC01BD01CF010895EE0FFF1F0590F491C7
:101C1000E02D09940F931F93CF93DF9382309105AA
:101C200010F482E090E0E0917A04F0917B0430E0DF
:101C300020E0B0E0A0E0309799F42115310509F4D7
:101C40004AC0281B390B24303105D8F58A819B8185
:101C50006115710589F1FB0193838283FE0111C037
:101C6000408151810281138148175907E0F04817DC
:101C7000590799F4109761F012960C9312971396E6
:101C80001C933296CF01DF91CF911F910F91089550
:101C900000937A0410937B04F4CF2115310551F0A1
:101CA0004217530738F0A901DB019A01BD01DF019A
:101CB000F801C1CFEF01F9CF90937B0480937A04B0
:101CC000CDCFFE01E20FF31F819391932250310992
:101CD00039832883D7CF2091780430917904232B3E
:101CE00041F4209103013091040130937904209351
:101CF000780420910101309102012115310541F450
:101D00002DB73EB74091050150910601241B350BBC
:101D1000E0917804F0917904E217F307A0F42E1B08
:101D20003F0B2817390778F0AC014E5F5F4F24173F
:101D3000350748F04E0F5F1F5093790440937804A5
:101D4000819391939FCFF0E0E0E09CCFCF93DF931E
:101D50000097E9F0FC01329713821282A0917A0475
:101D6000B0917B04ED0130E020E01097A1F42081D8
:101D70003181820F931F20917804309179042817C4
:101D8000390709F061C0F0937904E0937804DF919A
:101D9000CF910895EA01CE17DF07E8F54A815B810C
:101DA0009E0141155105B1F7E901FB83EA83499191
:101DB0005991C40FD51FEC17FD0761F48081918103
:101DC0000296840F951FE90199838883828193810C
:101DD0009B838A83F0E0E0E012968D919C911397AB
:101DE0000097B9F52D913C911197CD010296820F84
:101DF000931F20917804309179042817390739F618
:101E0000309751F510927B0410927A04B0937904C4
:101E1000A0937804BCCFD383C28340815181840FC7
:101E2000951FC817D90761F44E5F5F4F888199816C
:101E3000480F591F518340838A819B8193838283FA
:101E40002115310509F0B0CFF0937B04E0937A04BB
:101E50009ECFFD01DC01C0CF13821282D7CFF89450
:021E6000FFCFB2
:101E62000100007C048000000000008B01EB0018E0
:101E720001D801490127013B0100000000FD03D008
:101E8200032D04A603C903B603A70300000000CE76
:101E920006EB002D042C040D0A0070757368707235
:101EA20065737365642069732066616C736520696C
:101EB2006E20626C696E6B0053746172742042759D
:101EC2007A7A696E6700707573687072657373658C
:101ED20064206973207472756500436F756C646E5B
:101EE20027742066696E64205254430057656C6300
:101EF2006F6D6520546F00496F54204261746368AE
:101F02002033005075736831205772697474656E9E
:101F1200203A200052656D696E64657220736574A3
:101F22002000666F72204F6E63652F6461792021F5
:101F3200005075736832205772697474656E203A66
:101F42002000666F722054776963652F646179207F
:101F520021005075736833205772697474656E205E
:101F62003A2000666F72205468726963652F64615B
:101F72007920210054616B65204D65646963696E47
:101F82006520200077697468205761726D2057615F
:101F92007465720053746179204865616C74687964
:101FA200203A29004765742057656C6C20536F6F87
:101FB2006E203A2900507265737320427574746FF3
:101FC2006E7300666F722052656D696E6465722E63
:101FD2002E2E210052656D696E64657220736574E0
:101FE20020312F64617900507265737320627574B9
:101FF200746F6E20666F722000206E6577205265C6
:102002006D696E64200052656D696E64657220733D
:10201200657420322F6461790052656D696E646562
:10202200722073657420332F6461790054696D6581
:0C2032003A00446174653A20002F000061
:00000001FF
